:020000040800F2
:10000000701800200D0200086128000891250008E2
:10001000592800089907000811380008000000005E
:10002000000000000000000000000000C1290008DE
:100030006108000800000000D9280008212A0008F3
:1000400027020008270200082702000827020008EC
:1000500027020008270200082702000827020008DC
:1000600027020008270200082702000827020008CC
:1000700027020008270200082702000827020008BC
:1000800027020008270200082702000827020008AC
:10009000270200082702000827020008270200089C
:1000A000270200082702000827020008270200088C
:1000B000270200082702000827020008270200087C
:1000C000270200082702000827020008270200086C
:1000D00027020008D933000827020008E933000886
:1000E000270200082702000827020008270200084C
:1000F000270200082702000827020008270200083C
:10010000270200082702000827020008270200082B
:10011000270200082702000827020008270200081B
:10012000270200082702000827020008270200080B
:1001300027020008270200082702000827020008FB
:1001400027020008270200082702000827020008EB
:1001500027020008270200082702000827020008DB
:1001600027020008270200082702000827020008CB
:1001700027020008270200082702000800000000EC
:1001800027020008270200082702000827020008AB
:10019000270200082702000827020008270200089B
:1001A000270200082702000827020008270200088B
:1001B000270200082702000827020008270200087B
:1001C000270200082702000800000000270200089C
:1001D000270200082702000827020008270200085B
:1001E000270200082702000827020008270200084B
:1001F0002702000827020008DFF80CD000F048FAB8
:1002000000480047113A000870180020064880474F
:1002100006480047FEE7FEE7FEE7FEE7FEE7FEE7EB
:10022000FEE7FEE7FEE7FEE7112B0008F9010008F4
:100230002DE9F05F0546002092469B46884606461B
:10024000814640241BE0284641464746224600F0AE
:1002500057F853465A46C01A914110D311461846D2
:10026000224600F03EF82D1A67EB01084F46224661
:100270000120002100F035F817EB00094E41201E47
:10028000A4F10104DFDC484631462A464346BDE876
:10029000F09FD2B201E000F8012B491EFBD270475B
:1002A0000022F6E710B513460A4604461946FFF742
:1002B000F0FF204610BD30B50B460146002020223D
:1002C000012409E021FA02F59D4205D303FA02F563
:1002D000491B04FA02F52844151EA2F10102F1DCC3
:1002E00030BD202A04DB203A00FA02F100207047DA
:1002F0009140C2F1200320FA03F319439040704764
:10030000202A04DB203A21FA02F00021704721FA6A
:1003100002F3D040C2F120029140084319467047D1
:100320002DE9FE4F804681EA0300C00F0C46009085
:1003300021F0004123F00045B8EB0200A94105D2AD
:100340004046214690461C460B46024623F000409C
:10035000104347D0270DC7F30A00C3F30A51029098
:10036000401A019040286BDAC3F3130040F4801B5D
:100370000098924620B10023D2EB030A63EB0B0BEB
:1003800001985946C0F140025046FFF7AAFF0646C1
:100390000D4650465946019A00F08CF910EB0800C2
:1003A0006141002487EA115284EAE7731A4340D07E
:1003B000009A62B3019A012A4FEA075215DC001B2A
:1003C00061EB02014FF0004202EA0752CDE9004220
:1003D000001C41F5801132462B4600F08CF903B029
:1003E000BDE8F08F40462146F9E7001B61EB0201B2
:1003F000001C41F5801300185B412018A2F500177E
:1004000047EB030140EAD570B6196D4111E06D0864
:100410004FEA360645EAC0754FEA0752001B61EB0A
:100420000201001C41F5801149084FEA3000001913
:10043000514132462B4603B0BDE8F04F00F04CB9B5
:100440000098012240000023D0EB020263EBE0732E
:10045000009821464FEAE074B8EB000061EB04011C
:10046000E9E783F000435BE781F0004158E72DE9BD
:10047000FE4F81EA030404F0004421F0004100949F
:100480004FF0000B23F0004350EA01045ED052EA23
:1004900003045BD0C3F30A54C1F30A552C44A4F2FD
:1004A000F3340194A0FB0254C1F3130141F4801111
:1004B000C3F3130343F4801301FB024400FB034E18
:1004C000840A970A44EA815447EA8357A4FB0768E1
:1004D00002958D0A05FB07854FEA932C04FB0C540B
:1004E0002705029D4FEA065847EA1637B5EB08057F
:1004F0006EEB070C870E920E47EA811742EA8312D1
:10050000A7FB0201B6EB0B0164EB00042B0D43EAE1
:100510000C335E1844EB1C50DA465146E7FB0201EF
:10052000C5F313044FEA0B3343EA14534FEA043282
:10053000019C43EA0603A4F10C040294009CCDE95B
:1005400000B400F0D8F803B0BDE8F08F00200146F9
:10055000F9E72DE9F04D81EA030404F0004B21F0A6
:10056000004514464FF0000A23F0004150EA05020E
:1005700020D054EA01021DD0C5F30A570246C5F344
:100580001303C1F31300C1F30A5640F4801543F47A
:100590008013A7EB0608101BD64608F2FD3873EB54
:1005A000050002D308F1010801E092185B41B8F19F
:1005B000000F03DA00200146BDE8F08D00204FF463
:1005C0008011064684460EE0171B73EB050705D322
:1005D000121B63EB050306434CEA010C49084FEA82
:1005E000300092185B4150EA0107EDD152EA030056
:1005F00012D082EA040083EA0501084305D0101BEB
:10060000AB4106D20122002306E000224FF0004356
:1006100002E06FF0010253101AEB06004CEB085198
:1006200010EB0A0041EB0B01BDE8F04D00F054B8AF
:10063000C1F30A52C1F3130140F2FF3341F48011B8
:100640009A4202DA00200146704740F233439A4250
:10065000A2F2334202DC5242FFF752BEFFF741BE24
:1006600030B5041E71F1000404DB4FF00044404239
:1006700064EB0101141E73F1000405DB1C464FF00E
:100680000043524263EB0403994208BF904230BDDD
:10069000064C074D06E0E06840F0010394E80700CF
:1006A00098471034AC42F6D3FFF7AAFD1045000876
:1006B00030450008202A06DBCB17203A41FA02F029
:1006C00043EAE07306E041FA02F3D040C2F12002AF
:1006D000914008431946704710B5141E73F1000489
:1006E00008DA401C41F1000192185B411A4301D124
:1006F00020F0010010BD2DE9F04D92469B4611B14E
:10070000B1FA81F202E0B0FA80F220329046FFF7AF
:10071000E8FD04460F4640EA0A0041EA0B01534651
:100720005A46084313D0114653EA010019D0C8F1C4
:1007300040025046FFF7E4FD05460E465046594636
:100740004246FFF7CEFD084305D0012004E02046D5
:100750003946BDE8F08D0020054346EAE0762C439B
:1007600037430A986305E40AA0EB08000022FD0A5B
:1007700044EA47540A3002D500200146E9E7010562
:1007800010196941DDE9084500196941BDE8F04DDE
:10079000A2E7000000000000FFE7FEE70000000005
:1007A00080B502F0F1F802F0ABF880BD0000000067
:1007B00080B582B08DF803009DF8030030B9FFE7E3
:1007C00041F21000C2F20000019045E09DF80300E4
:1007D000012803D1FFE7002001903DE09DF80300D0
:1007E000022806D1FFE741F23C00C2F2000001906E
:1007F00032E09DF80300032803D1FFE700200190B9
:100800002AE09DF80300042803D1FFE700200190AF
:1008100022E09DF80300052803D1FFE700200190A6
:100820001AE09DF80300062803D1FFE7002001909D
:1008300012E09DF80300072803D1FFE70020019094
:100840000AE044F2CC40C0F600004FF48E7100F094
:100850000BF800200190FFE7019802B080BD000076
:10086000704700000000000082B0019000910098E5
:1008700010B9FFE702B07047FFE7FEE70000000095
:1008800080B584B0039000F017FA029003980190AD
:100890000198013048B1FFE740F20800C2F20000C1
:1008A0000178019808440190FFE7FFE700F004FA9F
:1008B0000299401A0199884201D2FFE7F6E704B095
:1008C00080BD00000000000090B00F900E9100204D
:1008D0000D900C900B900A900D90FFE70D980F284B
:1008E00000F2E681FFE70D99012088400C900E98F8
:1008F00000680C9908400B900B980C99884240F0C6
:10090000D281FFE70E98406800F00300012807D06D
:10091000FFE70E98406800F0030002282FD1FFE7A0
:100920000F9880680A900D984100032000FA01F1A9
:100930000A9888430A900E98C0680D99490000FAF9
:1009400001F10A9808430A900A980F9988600F9855
:1009500040680A900D99012000FA01F10A98884335
:100960000A900E984068C0F300100D9900FA01F14A
:100970000A9808430A900A980F994860FFE70E9872
:10098000406800F00300032818D0FFE70F98C06804
:100990000A900D984100032000FA01F10A9888435B
:1009A0000A900E9880680D99490000FA01F10A98A2
:1009B00008430A900A980F99C860FFE70E984068AC
:1009C00000F00300022826D1FFE70F980D996FF081
:1009D000030202EA51010844006A0A900D9800F0EF
:1009E000070081000F2000FA01F10A9888430A905D
:1009F0000E9800690D9901F00701890000FA01F1D4
:100A00000A9808430A900A980F990D9B02EA53022C
:100A100011440862FFE70F9800680A900D984100A2
:100A2000032000FA01F10A9888430A900E98406862
:100A300000F003000D99490000FA01F10A980843FB
:100A40000A900A980F9908600E988079800700280C
:100A500000F02881FFE7FFE743F64400C4F20200FC
:100A6000016841F480410160006800F48040099011
:100A70000998FFE70D9820F0030043F60801C4F23F
:100A8000010140580A900D9800F0030081000F20EA
:100A900000FA01F10A9888430A900F980021C4F2E5
:100AA0000201884203D1FFE7002008907AE00F9806
:100AB00040F20041C4F20201884203D1FFE7012065
:100AC00007906CE00F9840F60001C4F202018842E2
:100AD00003D1FFE7022006905EE00F9840F6004148
:100AE000C4F20201884203D1FFE70320059050E0E1
:100AF0000F9841F20001C4F20201884203D1FFE7DE
:100B00000420049042E00F9841F20041C4F2020137
:100B1000884203D1FFE70520039034E00F9841F6A7
:100B20000001C4F20201884203D1FFE706200290CF
:100B300026E00F9841F60041C4F20201884203D139
:100B4000FFE70720019018E00F9842F20001C4F27D
:100B50000201884203D1FFE7082000900AE00F99C4
:100B600042F20042C4F202020A20914208BF092068
:100B70000090FFE700980190FFE701980290FFE7DF
:100B800002980390FFE703980490FFE7049805900C
:100B9000FFE705980690FFE706980790FFE707989C
:100BA0000890FFE70898C0B20D9901F00301890091
:100BB00000FA01F10A9808430A900A980D9921F069
:100BC000030143F60802C4F20102885043F60840CC
:100BD000C4F2010000680A900B990A9888430A90B1
:100BE0000E988079C006002805D5FFE70B990A9872
:100BF00008430A90FFE70A9843F60841C4F201014E
:100C0000086043F60C40C4F2010000680A900B999A
:100C10000A9888430A900E9880798006002805D5A6
:100C2000FFE70B990A9808430A90FFE70A9843F6F2
:100C30000C41C4F20101086043F60440C4F2010013
:100C400000680A900B990A9888430A900E98807958
:100C50008007002805D5FFE70B990A9808430A90FA
:100C6000FFE70A9843F60441C4F20101086043F625
:100C70000040C4F2010000680A900B990A9888436A
:100C80000A900E988079C00728B1FFE70B990A985F
:100C900008430A90FFE70A9843F60041C4F20101B5
:100CA0000860FFE7FFE7FFE70D9801300D9015E6BC
:100CB00010B070470000000041F26800C2F200006E
:100CC000006870470000000040F20800C2F2000017
:100CD000027841F26801C2F200010868104408601D
:100CE000704700000000000080B5032000F008F904
:100CF0000F2000F005F800F0B7F8002080BD0000DC
:100D000080B582B0009040F20400C2F2000000689A
:100D100040F20801C2F200010A784FF47A71B1FB87
:100D2000F2F1B0FBF1F001F03FFB20B1FFE7012051
:100D30008DF8070018E000980F280DD8FFE70099FC
:100D40004FF0FF30002200F0BFF8009840F20C0195
:100D5000C2F20001086003E001208DF8070003E003
:100D600000208DF80700FFE79DF8070002B080BD66
:100D700080B582B00190019840784EF69851CEF23D
:100D8000000108600198007898B3FFE70198406877
:100D90004EF69C51CEF200010860DDF804C0CDF89B
:100DA00000C09CF80C0000079CF80B1040EA0160A2
:100DB0009CF800109CF808209CF809309CF80AE088
:100DC00040EACE409CF80DE040EA8E409CF80EE0F0
:100DD00040EA4E409CF80FC040EA0C4040EA032035
:100DE00040EA420008434EF6A051CEF200010860EE
:100DF0000BE04EF69C51CEF20001002008604EF64A
:100E0000A051CEF200010860FFE702B080BD0000F3
:100E1000BFF35F8F4EF62451CEF20001086820F434
:100E2000803008604EF69451CEF200010020086038
:100E3000704700000000000081B00090009840F072
:100E400001004EF69451CEF2000108604EF6245196
:100E5000CEF20001086840F480300860BFF34F8F85
:100E6000BFF36F8F01B0704782B0FFE743F64000D9
:100E7000C4F20200016841F080510160006800F096
:100E8000805001900198FFE7FFE743F64400C4F269
:100E90000200016841F480410160006800F4804074
:100EA00000900098FFE702B07047000000000000CB
:100EB00080B582B08DF807009DF9070002F0ACFC08
:100EC00002B080BD0000000080B586B08DF817002C
:100ED000049103920020029002F0B6FC02909DF96A
:100EE0001700019002980499039A01F0BDFC014695
:100EF000019802F0B1FC06B080BD000000000000C7
:100F000080B582B00190019802F0CAFC02B080BDA9
:100F100080B584B000200290FFE743F64000C4F2A1
:100F20000200016841F080510160006800F08050CB
:100F300001900198FFE747F20001C4F20001086840
:100F400040F480300860FFF7B7FE0290FFE747F2F9
:100F50000400C4F20000006800F48030B0F5803F67
:100F60000DD0FFE7FFF7A8FE0299401AB0F57A7F8F
:100F700004D9FFE703208DF80F0028E0E7E747F2E8
:100F80000001C4F20001086840F400300860FFF777
:100F900093FE0290FFE747F20400C4F200000068ED
:100FA00000F40030B0F5003F0DD0FFE7FFF784FEFE
:100FB0000299401AB0F57A7F04D9FFE703208DF833
:100FC0000F0004E0E7E700208DF80F00FFE79DF831
:100FD0000F0004B080BD000080B588B006900020EE
:100FE0000590049003900290019006980078C00745
:100FF000B8B1FFE7FFE743F60801C4F20201086851
:1010000020F4000008600698426B086810430860EE
:10101000FFE70698406B18B9FFE701200290FFE751
:10102000FFE706988078000700281CD5FFE743F605
:101030008C01C4F20201086820F44010069AD26BB9
:10104000104308600698C06BB0F5801F03D1FFE71E
:1010500001200290FFE70698C06B18B9FFE7012056
:101060000190FFE7FFE706988078C00600281CD5AE
:10107000FFE743F68C01C4F20201086820F4400047
:10108000069A126C104308600698006CB0F5800F49
:1010900003D1FFE701200290FFE70698006C18B922
:1010A000FFE701200190FFE7FFE70698C078C0073F
:1010B00018B1FFE701200290FFE70698007880064C
:1010C000002840F1AB80FFE7FFE743F64000C4F2A1
:1010D0000200016841F080510160006800F080501A
:1010E00000900098FFE747F20001C4F20001086891
:1010F00040F480700860FFF7DFFD0590FFE747F2DE
:101100000000C4F200000068C00500280CD4FFE70E
:10111000FFF7D2FD0599401A652804D3FFE70320A5
:101120008DF81F00C6E3EAE743F67000C4F2020040
:10113000006800F440700490049800283ED0FFE757
:1011400004980699096B01F44071884236D0FFE794
:1011500043F67000C4F20200016821F4407104916A
:10116000016841F480310160016821F4803101603F
:10117000049901600068C007F8B1FFE7FFF79CFD24
:101180000590FFE743F67000C4F20200006800F02B
:1011900002010020B0EB510F0ED1FFE7FFF78CFDED
:1011A0000599401A41F28931884204D3FFE70320B0
:1011B0008DF81F007EE3E5E7FFE7FFE7FFE706980E
:1011C000006B00F44070B0F5407F11D1FFE743F6AB
:1011D0000801C4F20201086820F4F810069A126BA4
:1011E0004FF6FF43C0F6FF731A401043086008E053
:1011F00043F60801C4F20201086820F4F810086000
:10120000FFE70698026B6FF31F3243F67001C4F2DA
:101210000201086810430860FFE7FFE706980078BE
:10122000C006002810D5FFE7FFE743F68C01C4F2A3
:101230000201086820F0807008600698826B0868D8
:1012400010430860FFE7FFE7069840784006002853
:101250000CD5FFE743F69001C4F20201086820F4C0
:101260004030069A526E10430860FFE706984078B7
:10127000000600280CD5FFE743F69001C4F20201F6
:10128000086820F44020069A926E10430860FFE739
:1012900006988078C00760B1FFE743F69001C4F27A
:1012A0000201086820F44010069AD26E10430860CC
:1012B000FFE706988078800700280CD5FFE743F603
:1012C0009001C4F20201086820F44000069A126FEF
:1012D00010430860FFE706980078400600280CD508
:1012E000FFE743F69001C4F20201086820F0030012
:1012F000069A526C10430860FFE7069800780006D3
:1013000000280CD5FFE743F69001C4F202010868FB
:1013100020F00C00069A926C10430860FFE70698D4
:101320004078C00760B1FFE743F69001C4F20201C4
:10133000086820F03000069AD26C10430860FFE77E
:1013400006984078800700280CD5FFE743F6900107
:10135000C4F20201086820F0C000069A126D104322
:101360000860FFE706984078400700280CD5FFE7A3
:1013700043F69001C4F20201086820F44070069A16
:10138000526D10430860FFE7069840780007002878
:101390000CD5FFE743F69001C4F20201086820F47F
:1013A0004060069A926D10430860FFE70698407807
:1013B000C00600280CD5FFE743F69001C4F20201F5
:1013C000086820F44050069AD26D10430860FFE789
:1013D00006984078800600280CD5FFE743F6900178
:1013E000C4F20201086820F44040069A126E1043CD
:1013F0000860FFE706988078400600280CD5FFE7D4
:1014000043F69001C4F20201086820F08060069A59
:10141000926F10430860FFE70698807880060028E6
:1014200015D5FFE743F69001C4F20201086820F0E9
:101430000060069AD26F104308600698C06FB0F142
:10144000006F03D1FFE701200190FFE7FFE7069857
:1014500000780007002803D5FFE701200190FFE78F
:1014600006988078400700280CD5FFE743F69001E6
:10147000C4F20201086820F04070069A526F1043CF
:101480000860FFE706988078000600280DD5FFE782
:1014900043F69001C4F20201086820F08050069AD9
:1014A000D2F8802010430860FFE70698C078400714
:1014B00000280DD5FFE743F69001C4F20201086849
:1014C00020F00050069AD2F8842010430860FFE70D
:1014D0000698C078000700280DD5FFE743F68C0179
:1014E000C4F20201086820F00070069AD2F8882041
:1014F00010430860FFE70698C078C00600280DD5A5
:10150000FFE743F68C01C4F20201086820F0806016
:10151000069AD2F88C2010430860FFE70298012851
:1015200007D0FFE70698C0788007002840F1E280E6
:10153000FFE743F60001C4F20201086820F0806072
:101540000860FFF7B9FB0590FFE743F60000C4F21F
:101550000200006800F000610020B0EBD16F0CD0F9
:10156000FFE7FFF7A9FB0599401A652804D3FFE7B9
:1015700003208DF81F009DE1E7E706980078C0077B
:10158000F0B1FFE70698406BD0B9FFE743F684015E
:10159000C4F202010868C0F3014004900868C0F377
:1015A00003600390069A506892688001049B40EAA9
:1015B0000340039B40EA036040EA02700860FFE7D3
:1015C000069880780007002806D5FFE70698C06BCC
:1015D000B0F5801F0CD0FFE706988078C006002881
:1015E0002CD5FFE70698006CB0F5800F26D1FFE7F9
:1015F00043F68401C4F202010868C0F3014004907C
:101600000868C0F302700390069A5068D26880019F
:10161000049B40EA034040EA0260039A40EA0270F9
:10162000086043F68C01C4F20201086820F01F0034
:10163000069A526A013A10430860FFE70698C0789C
:10164000C007D0B1FFE743F68401C4F20201086885
:10165000C0F3036004900868C0F302700390069A18
:1016600050681269800140EA0240049A40EA026030
:10167000039A40EA02700860FFE70698C078800786
:10168000002812D5FFE7069B58689968DA681B693D
:10169000800140EA034040EA026040EA017043F6FC
:1016A0008401C4F202010860FFE743F60001C4F2BE
:1016B0000201086840F080600860FFF7FDFA0590BD
:1016C000FFE743F60000C4F20200006800F000618A
:1016D0000020B0EBD16F0CD1FFE7FFF7EDFA0599D1
:1016E000401A652804D3FFE703208DF81F00E1E0CE
:1016F000E7E7FFE70198012840F0D880FFE743F6CD
:101700000001C4F20201086820F080500860FFF771
:10171000D3FA0590FFE743F60000C4F20200006828
:1017200000F000510020B0EB517F0CD0FFE7FFF735
:10173000C3FA0599401A652804D3FFE703208DF802
:101740001F00B7E0E7E7069880780007002804D577
:10175000FFE70698C06B50B1FFE706988078C00697
:1017600000282DD5FFE70698006C48BBFFE743F63D
:101770008801C4F202010868C0F3014004900868BF
:10178000C0F302700390069A506992698001049B2D
:1017900040EA034040EA0260039A40EA02700860AF
:1017A00043F68C01C4F20201086820F4F850069A4E
:1017B000936A6FF0FF0202EB032210430860FFE719
:1017C000069880788006002820D5FFE70698C06F2D
:1017D000B0F1006F1AD1FFE743F68801C4F20201AD
:1017E0000868C0F3036004900868C0F302700390B7
:1017F000069A5069126A800140EA0240049A40EA5F
:101800000260039A40EA02700860FFE706980078D9
:101810000007002825D5FFE743F68801C4F202013E
:101820000868C0F3036004900868C0F301400390A7
:10183000069A5069D2698001039B40EA0340049BE9
:1018400040EA036040EA0270086043F68C01C4F28B
:101850000201086820F44030069AD26A10430860FA
:10186000FFE743F60001C4F20201086840F080502F
:101870000860FFF721FA0590FFE743F60000C4F285
:101880000200006800F000510020B0EB517F0CD145
:10189000FFE7FFF711FA0599401A652804D3FFE71F
:1018A00003208DF81F0005E0E7E7FFE700208DF833
:1018B0001F00FFE79DF81F0008B080BD000000007A
:1018C00080B584B00290019100200090029820B968
:1018D000FFE701208DF80F0024E1019843F6004155
:1018E000C4F20201096801F00F01884216D9FFE72E
:1018F00043F60040C4F20200016821F00F01019A92
:1019000011430160006800F00F000199884204D083
:10191000FFE701208DF80F0004E1FFE7029800784F
:10192000800700282AD5FFE70298007840070028A2
:1019300009D5FFE743F60801C4F20201086840F444
:10194000E0500860FFE7029800780007002809D5FA
:10195000FFE743F60801C4F20201086840F4604062
:101960000860FFE743F60801C4F20201086820F0AE
:10197000F000029A926810430860FFE7029800782E
:10198000C007002869D0FFE702984068012811D1FC
:10199000FFE743F60000C4F20200006800F40031E3
:1019A0000020B0EB514F04D1FFE701208DF80F006C
:1019B000B8E027E002984068022811D1FFE743F61B
:1019C0000000C4F20200006800F000710020B0EBDB
:1019D000516F04D1FFE701208DF80F00A2E010E065
:1019E00043F60000C4F20200006800F0020100208B
:1019F000B0EB510F04D1FFE701208DF80F0091E00B
:101A0000FFE7FFE743F60801C4F20201086820F08F
:101A10000300029A526810430860FFF74DF90090E6
:101A2000FFE743F60800C4F20200006800F00C0073
:101A300002994968B0EB810F0ED0FFE7FFF73CF940
:101A40000099401A41F28931884204D3FFE703200C
:101A50008DF80F0066E0E4E7FFE7019843F60041E8
:101A6000C4F20201096801F00F01884216D2FFE7B3
:101A700043F60040C4F20200016821F00F01019A10
:101A800011430160006800F00F000199884204D002
:101A9000FFE701208DF80F0044E0FFE7029800788F
:101AA000400700280CD5FFE743F60801C4F2020105
:101AB000086820F4E050029AD26810430860FFE7FB
:101AC00002980078000700280DD5FFE743F60801CB
:101AD000C4F20201086820F46040029A126940EAE8
:101AE000C2000860FFE700F053F843F60801C4F2B3
:101AF00002010968C9B20A0944F2AA41C0F600010C
:101B0000895CC84040F20401C2F20001086040F262
:101B10000C00C2F200000068FFF7F2F800208DF818
:101B20000F00FFE79DF80F0004B080BD000000002B
:101B300040F20400C2F2000000687047000000009C
:101B400080B5FFF7F5FF43F60801C4F2020109680A
:101B5000C1F3822244F2BA41C0F60001895CC84058
:101B600080BD00000000000080B5FFF7E1FF43F6F4
:101B70000801C4F20201096889B24A0B44F2BA4171
:101B8000C0F60001895CC84080BD00000000000074
:101B900080B586B00020059004900390029043F633
:101BA0000800C4F20200006800F00C000146019138
:101BB00040B1FFE7019804280AD0FFE70198082800
:101BC0000CD04FE042F20040C0F2F40002904FE02F
:101BD00047F64000C0F27D10029049E043F6040051
:101BE000C4F20200016801F03F0105910068400263
:101BF000002813D5FFE743F60400C4F20200006892
:101C0000C0F3881047F64001C0F27D11A0FB01012E
:101C1000059A0023FEF70CFB049012E043F6040043
:101C2000C4F202000068C0F3881042F20041C0F222
:101C3000F401A0FB0101059A0023FEF7F9FA0490D4
:101C4000FFE743F60400C4F20200006800F44031EC
:101C5000022000EBD130039004980399B0FBF1F01F
:101C6000029005E042F20040C0F2F4000290FFE76B
:101C7000029806B080BD000080B586B004900020B8
:101C80008DF80700049820B9FFE701208DF81700B0
:101C900084E304980078C007002800F0B780FFE7CD
:101CA00043F60800C4F20200006800F00C000428AB
:101CB00013D0FFE743F60800C4F20200006800F00A
:101CC0000C0008281ED1FFE743F60400C4F202000E
:101CD00000684002002815D5FFE743F60000C4F273
:101CE0000200006800F400310020B0EB514F08D032
:101CF000FFE70498406820B9FFE701208DF817003E
:101D00004CE382E0FFE704984068B0F5803F09D1DA
:101D1000FFE743F60001C4F20201086840F4803096
:101D2000086032E00498406868B9FFE743F60001B4
:101D3000C4F20201086820F480300860086820F4CA
:101D40008020086020E004984068B0F5A02F0DD1F5
:101D5000FFE743F60001C4F20201086840F4802066
:101D60000860086840F4803008600CE043F6000129
:101D7000C4F20201086820F480300860086820F48A
:101D800080200860FFE7FFE7FFE7FFE7049840686F
:101D9000E8B1FFE7FEF790FF0390FFE743F600008E
:101DA000C4F20200006800F400310020B0EB514F93
:101DB0000CD1FFE7FEF780FF0399401A652804D392
:101DC000FFE703208DF81700E8E2E7E71CE0FEF7E5
:101DD00073FF0390FFE743F60000C4F202000068BF
:101DE00000F400310020B0EB514F0CD0FFE7FEF7BC
:101DF00063FF0399401A652804D3FFE703208DF899
:101E00001700CBE2E7E7FFE7FFE7FFE7049800787A
:101E10008007002840F19C80FFE743F60800C4F2E9
:101E20000200006810F00C0F13D0FFE743F6080023
:101E3000C4F20200006800F00C0008282CD1FFE773
:101E400043F60400C4F2020000684002002823D4D4
:101E5000FFE743F60000C4F20200006800F0020150
:101E60000020B0EB510F09D0FFE70498C0680128AB
:101E700004D0FFE701208DF817008FE243F6000140
:101E8000C4F20201086820F0F800049A126940EADE
:101E9000C2000860FFE75AE00498C06888B3FFE713
:101EA00043F60001C4F20201086840F00100086036
:101EB000FEF702FF0390FFE743F60000C4F20200C2
:101EC000006800F002010020B0EB510F0CD1FFE7D9
:101ED000FEF7F2FE0399401A032804D3FFE703201C
:101EE0008DF817005AE2E7E743F60001C4F2020159
:101EF000086820F0F800049A126940EAC2000860FD
:101F000024E043F60001C4F20201086820F0010059
:101F10000860FEF7D1FE0390FFE743F60000C4F22D
:101F20000200006800F002010020B0EB510F0CD05D
:101F3000FFE7FEF7C1FE0399401A032804D3FFE729
:101F400003208DF8170029E2E7E7FFE7FFE7FFE747
:101F500004980078000700284FD5FFE704984069EF
:101F600028B3FFE743F67401C4F20201086840F0A9
:101F700001000860FEF7A0FE0390FFE743F674003F
:101F8000C4F20200006800F002010020B0EB510F23
:101F90000CD1FFE7FEF790FE0399401A032804D303
:101FA000FFE703208DF81700F8E1E7E724E043F6A8
:101FB0007401C4F20201086820F001000860FEF715
:101FC0007BFE0390FFE743F67400C4F20200006852
:101FD00000F002010020B0EB510F0CD0FFE7FEF73C
:101FE0006BFE0399401A032804D3FFE703208DF802
:101FF0001700D3E1E7E7FFE7FFE704980078400721
:10200000002840F1DB80FFE743F64000C4F2020005
:102010000068C000002813D4FFE7FFE743F6400044
:10202000C4F20200016841F080510160006800F0D4
:10203000805000900098FFE701208DF80700FFE72F
:1020400047F20000C4F200000068C005002822D456
:10205000FFE747F20001C4F20001086840F4807015
:102060000860FEF729FE0390FFE747F20000C4F284
:1020700000000068C00500280CD4FFE7FEF71CFE36
:102080000399401A652804D3FFE703208DF8170051
:1020900084E1EAE7FFE7FFE704988068012809D1B7
:1020A000FFE743F67001C4F20201086840F0010046
:1020B000086031E00498806868B9FFE743F6700172
:1020C000C4F20201086820F001000860086820F0EE
:1020D000040008601FE00498806805280DD1FFE720
:1020E00043F67001C4F20201086840F00400086081
:1020F000086840F0010008600CE043F67001C4F28B
:102100000201086820F001000860086820F004005F
:102110000860FFE7FFE7FFE7FFE704988068F8B192
:10212000FFE7FEF7C9FD0390FFE743F67000C4F236
:102130000200006800F002010020B0EB510F0ED148
:10214000FFE7FEF7B9FD0399401A41F28931884251
:1021500004D3FFE703208DF817001FE1E5E71EE039
:10216000FEF7AAFD0390FFE743F67000C4F20200F9
:10217000006800F002010020B0EB510F0ED0FFE725
:10218000FEF79AFD0399401A41F28931884204D33F
:10219000FFE703208DF8170000E1E5E7FFE79DF872
:1021A0000700012809D1FFE743F64001C4F202010C
:1021B000086820F080500860FFE7FFE70498806916
:1021C000002800F0E780FFE743F60800C4F20200B1
:1021D000006800F00C00082800F09180FFE70498E8
:1021E0008069022865D1FFE743F60001C4F20201CD
:1021F000086820F080700860FEF75EFD0390FFE73E
:1022000043F60000C4F20200006800F000710020F4
:10221000B0EB516F0CD0FFE7FEF74EFD0399401A6B
:10222000032804D3FFE703208DF81700B6E0E7E7A3
:102230000499C869D1F820C04B6A8A6A40EA0C0048
:1022400040EA8310D2034FF6FF739A43A2F580321F
:102250001043CA6A40EA0260096B40EA017043F623
:102260000401C4F20201086043F60001C4F2020155
:10227000086840F080700860FEF71EFD0390FFE7DD
:1022800043F60000C4F20200006800F00071002074
:10229000B0EB516F0CD1FFE7FEF70EFD0399401A2A
:1022A000032804D3FFE703208DF8170076E0E7E763
:1022B00024E043F60001C4F20201086820F08070B7
:1022C0000860FEF7F9FC0390FFE743F60000C4F254
:1022D0000200006800F000710020B0EB516F0CD0DC
:1022E000FFE7FEF7E9FC0399401A032804D3FFE750
:1022F00003208DF8170051E0E7E7FFE749E043F6D8
:102300000400C4F202000068029004988069012869
:102310003AD0FFE7029800F480000499C969884226
:1023200032D1FFE7029800F03F000499096A884221
:102330002AD1FFE7029847F6C07108400499496A1C
:10234000B0EB811F20D1FFE7029800F440300499E0
:10235000896AC9034FF6FF729143A1F58031884223
:1023600012D1FFE7029800F070600499C96AB0EBDF
:10237000016F09D1FFE7029800F0E0400499096B72
:10238000B0EB017F04D0FFE701208DF8170005E0D6
:10239000FFE7FFE700208DF81700FFE79DF8170023
:1023A00006B080BD0000000080B582B001900198A9
:1023B00000F00AFB02B080BD80B582B000900098AA
:1023C00020B9FFE701208DF8070044E000988069FC
:1023D00008B1FFE700E0FFE70098C06F40B9FFE7F2
:1023E0000099002081F87800009800F039F8FFE7A4
:1023F00000992420C86700980168086820F001004F
:102400000860009800F08CFC012804D1FFE701204F
:102410008DF807001FE00098406A20B1FFE70098A0
:1024200000F082FBFFE700980168486820F49040C4
:10243000486000980168886820F02A008860009849
:102440000168086840F001000860009800F010FC86
:102450008DF80700FFE79DF8070002B080BD00007F
:1024600080B5AEB02D9000202C902B902A90299012
:10247000289004A89021FDF713FF2D98006841F2E1
:102480000001C4F2010188423AD1FFE740200490E4
:102490000020159004A8FEF79FFD08B1FFE7FFE7B5
:1024A000FFE743F64400C4F20200016841F0100166
:1024B0000160006800F0100003900398FFE7FFE759
:1024C00043F63000C4F20200016841F001010160EE
:1024D000006800F0010002900298FFE74FF4C0602E
:1024E00028900220299001202A9003202B90072079
:1024F0002C900020C4F2020028A9FEF7E5F945E07F
:102500002D98006844F60001C4F2000188423CD1D5
:10251000FFE74FF4807004900020179004A8FEF7A6
:102520005BFD08B1FFE7FFE7FFE743F64000C4F2B9
:102530000200016841F480210160006800F48020FD
:1025400001900198FFE7FFE743F63000C4F2020074
:10255000016841F002010160006800F00200009093
:102560000098FFE74FF44060289002202990012056
:102570002A9003202B9007202C9040F20040C4F2B8
:10258000020028A9FEF7A0F9FFE7FFE72EB080BD03
:10259000FFE7FEE70000000080B5BEB040201590C8
:1025A0000020269015A8FEF717FD48B1FFE744F27A
:1025B000CC40C0F6000040F24231FEF755F9FFE78B
:1025C000FFE743F63000C4F20200016841F0010168
:1025D0000160006800F0010014901498FFE7FFE725
:1025E00043F63000C4F20200016841F001010160CD
:1025F000006800F0010013901398FFE7FFE743F62F
:102600004400C4F20200016841F01001016000685A
:1026100000F0100012901298FFE74FF4007039900C
:1026200002203A9001200B903B9003203C90072021
:1026300008903D900020C4F20200099039A90A9147
:10264000FEF742F9089A09980A994FF48063399382
:102650003D92FEF739F90B9A25200C9000210E913E
:10266000FEF732FC0C98FEF723FC0E9A41F20000B4
:10267000C4F201000D904FF416510C2301F044F9FF
:102680000D9A0E9841F22003C4F20103196841F03B
:102690004001196041F21803C4F20103196841F0C6
:1026A00008011960116841F0200111604FF4807138
:1026B0001591289015A8FEF78FFC48B1FFE744F26A
:1026C000CC40C0F6000040F28B31FEF7CDF8FFE7BA
:1026D000FFE743F63000C4F20200016841F0020156
:1026E0000160006800F0020011901198FFE7FFE719
:1026F00043F63000C4F20200016841F002010160BB
:10270000006800F0020010901098FFE7FFE743F622
:102710004000C4F20200016841F4802101600068B9
:1027200000F480200F900F98FFE74FF480603990FD
:1027300002203A9001203B90032004903C90072017
:1027400001903D9040F20040C4F20200029039A98D
:102750000391FEF7B9F8019A029803994FF40063C8
:1027600039933D92FEF7B0F8049A27200590002196
:102770000691FEF7A9FB0598FEF79AFB069A44F628
:102780000000C4F2000007904FF416510C2301F032
:10279000BBF8079944F62002C4F20002106840F02A
:1027A0004000106044F61802C4F20002106840F0C5
:1027B00008001060086840F0200008603EB080BD4E
:1027C00080B588B0FEF724FB012101918DF810102F
:1027D0004FF01050059012208DF818000320009043
:1027E0008DF81B008DF81F108DF81E100020029030
:1027F0008DF81D008DF811008DF81A108DF8190054
:102800008DF81C0004A80390FEF7B2FA009B019A11
:10281000029903988DF810204FF0C04CCDF814C0E9
:102820004FF00F0C8DF818C08DF81B308DF81F205D
:102830008DF81E108DF81D108DF811208DF81A10CE
:102840008DF819108DF81C10FEF792FA0420FEF78F
:10285000F3FA08B080BD0000FFE7FEE700000000CB
:10286000FFE7FEE70000000088B0079006910592A0
:10287000079800F0070004900498C0F107000528AD
:1028800003D3FFE70420019004E00498C0F107009F
:102890000190FFE70198039004980430062803D8BC
:1028A000FFE70020009003E0049803380090FFE762
:1028B0000098029006980399012202FA01F1013969
:1028C0000840029B984005999A40013A11400843FC
:1028D00008B07047000000007047000000000000D2
:1028E00081B08DF8030001B07047000000000000C7
:1028F000704700000000000070470000000000006A
:1029000083B04EF68451CEF2000100200860BFF380
:102910004F8F4EF68050CEF2000000680290029871
:10292000C0F34E300190FFE70298C0F3C900009059
:10293000FFE701990098800761F34D104EF6607132
:10294000CEF200010860FFE70098411E00910028C8
:10295000EFD1FFE7FFE70198411E01910028E3D185
:10296000FFE7BFF34F8F4EF61451CEF20001086817
:1029700040F480300860BFF34F8FBFF36F8F03B018
:102980007047000000000000BFF34F8FBFF36F8F50
:102990004EF65071CEF2000100200860BFF34F8F59
:1029A000BFF36F8F4EF61451CEF20001086840F469
:1029B00000300860BFF34F8FBFF36F8F7047000088
:1029C000704700000000000080B582B000900098C1
:1029D0000138B0F1807F03D3FFE70120019019E0B7
:1029E000009801384EF21401CEF2000108604FF059
:1029F000FF300F2100F030FF4EF21801CEF200013F
:102A0000002008604EF21002CEF200020721116091
:102A10000190FFE7019802B080BD000000000000B7
:102A200080B5FEF751F980BD80B594B007A8342178
:102A3000FDF736FC0020069005900490039002906C
:102A4000FFE743F64000C4F20200016841F0805104
:102A50000160006800F0805001900198FFE7FFE7F7
:102A600047F20000C4F20000016841F440410160F7
:102A7000006800F4404000900098FFE701200790B4
:102A80004FF48030089002200D904FF480010E9199
:102A900019210F914FF4D871109111901290139049
:102AA00007A8FFF7E9F840B1FFE744F2C240C0F6DB
:102AB00000007F21FDF7D8FEFFE7FEF729FA40B1BD
:102AC000FFE744F2C240C0F600008621FDF7CCFECD
:102AD000FFE70F20029002200390002004904FF4A3
:102AE000A05005904FF48050069002A80721FEF7F1
:102AF000E7FE40B1FFE744F2C240C0F60000942177
:102B0000FDF7B2FEFFE714B080BD0000000000003A
:102B10004EF68851CEF20001086840F4700008605B
:102B2000704700000000000081B00090009890F80D
:102B30002400C00758B1FFE700980068406820F4FF
:102B40000030009A1168926A10434860FFE70098CD
:102B500090F82400800700280BD5FFE70098006854
:102B6000406820F48030009A1168D26A10434860AF
:102B7000FFE7009890F82400400700280BD5FFE7F6
:102B800000980068406820F48020009A1168126B59
:102B900010434860FFE7009890F8240000070028E1
:102BA0000BD5FFE700980068406820F40040009AC9
:102BB0001168526B10434860FFE7009890F82400BA
:102BC000C00600280BD5FFE700980068806820F455
:102BD0008050009A1168926B10438860FFE700985C
:102BE00090F82400800600280BD5FFE700980068C5
:102BF000806820F40050009A1168D26B10438860FE
:102C0000FFE7009890F82400400600281CD5FFE755
:102C100000980068406820F48010009A1168126CD7
:102C2000104348600098006CB0F5801F0BD1FFE79F
:102C300000980068406820F4C000009A1168526C47
:102C400010434860FFE7FFE7009890F82400000673
:102C500000280BD5FFE700980068406820F40020AA
:102C6000009A1168926C10434860FFE701B070470A
:102C700080B584B0029002990020C1F88400FEF76C
:102C80001BF801900298006800680007002812D520
:102C9000FFE70298019B6A466FF07E4111604FF496
:102CA0000011002200F0DCFA20B1FFE703208DF8CC
:102CB0000F002EE0FFE70298006800684007002838
:102CC00012D5FFE70298019B6A466FF07E411160C2
:102CD0004FF48001002200F0C3FA20B1FFE7032087
:102CE0008DF80F0015E0FFE702992020C8670299D0
:102CF000C1F8800002990020086602994866FFE743
:102D00000299002081F87800FFE700208DF80F007D
:102D1000FFE79DF80F0004B080BD00000000000038
:102D200080B590B00F9000208DF82F000F99886823
:102D30000B694A69C9691843104308430E900F98FC
:102D40000068006846F6F311CEF6FF7108400E9950
:102D500008430F99096808600F980068406820F4DC
:102D600040500F9A1168D268104348600F988069EC
:102D70000E900F98016A0E9808430E900F98006805
:102D8000806820F430600E9908430F9909688860C4
:102D9000FFE70F98006841F20001C4F20101884288
:102DA00025D1FFE743F69000C4F20200006800F06E
:102DB000030001460991032814D80999DFE801F0BE
:102DC000020A060E01208DF835000FE002208DF872
:102DD00035000BE004208DF8350007E008208DF861
:102DE000350003E010208DF83500FFE787E10F98EC
:102DF000006844F20041C4F2000188422AD1FFE792
:102E000043F69000C4F20200006800F00C00014696
:102E100008910C2819D80899DFE801F0071717174F
:102E20000F1717170B171717130000208DF8350011
:102E30000FE002208DF835000BE004208DF83500FE
:102E400007E008208DF8350003E010208DF83500EC
:102E5000FFE753E10F98006844F60001C4F2000157
:102E600088422CD1FFE743F69000C4F202000068CC
:102E700000F030000146079160B1FFE70798102885
:102E800010D0FFE70798202808D0FFE707983028E0
:102E90000CD00FE000208DF835000FE002208DF8F7
:102EA00035000BE004208DF8350007E008208DF890
:102EB000350003E010208DF83500FFE71DE10F9885
:102EC000006844F60041C4F2000188422CD1FFE7BB
:102ED00043F69000C4F20200006800F0C000014612
:102EE000069160B1FFE70698402810D0FFE70698EA
:102EF000802808D0FFE70698C0280CD00FE00020FB
:102F00008DF835000FE002208DF835000BE004202D
:102F10008DF8350007E008208DF8350003E010201B
:102F20008DF83500FFE7E7E00F98006845F20001F3
:102F3000C4F2000188422FD1FFE743F69000C4F2AB
:102F40000200006800F440700146059178B1FFE787
:102F50000598B0F5807F12D0FFE70598B0F5007FA7
:102F600009D0FFE70598B0F5407F0CD00FE00020B6
:102F70008DF835000FE002208DF835000BE00420BD
:102F80008DF8350007E008208DF8350003E01020AB
:102F90008DF83500FFE7AEE00F98006841F2004180
:102FA000C4F2010188422FD1FFE743F69000C4F23A
:102FB0000200006800F440600146049178B1FFE728
:102FC0000498B0F5806F12D0FFE70498B0F5006F59
:102FD00009D0FFE70498B0F5406F0CD00FE0012056
:102FE0008DF835000FE002208DF835000BE004204D
:102FF0008DF8350007E008208DF8350003E010203B
:103000008DF83500FFE775E00F98006847F600017E
:10301000C4F2000188422FD1FFE743F69000C4F2CA
:103020000200006800F440500146039178B1FFE7C8
:103030000398B0F5805F12D0FFE70398B0F5005F0A
:1030400009D0FFE70398B0F5405F0CD00FE00020F7
:103050008DF835000FE002208DF835000BE00420DC
:103060008DF8350007E008208DF8350003E01020CA
:103070008DF83500FFE73CE00F98006847F6004107
:10308000C4F2000188422FD1FFE743F69000C4F25A
:103090000200006800F440400146029178B1FFE769
:1030A0000298B0F5804F12D0FFE70298B0F5004FBC
:1030B00009D0FFE70298B0F5404F0CD00FE0002098
:1030C0008DF835000FE002208DF835000BE004206C
:1030D0008DF8350007E008208DF8350003E010205A
:1030E0008DF83500FFE703E010208DF83500FFE78D
:1030F000FFE7FFE7FFE7FFE7FFE7FFE7FFE7FFE7A0
:103100000F98C069B0F5004F58D1FFE79DF8350022
:103110000146019108281DD80199DFE801F0050951
:103120000D1B131B1B1B1700FEF70AFD0A9017E06F
:10313000FEF71AFD0A9013E042F20040C0F2F400DC
:103140000A900DE0FEF724FD0A9009E04FF40040DC
:103150000A9005E000200A9001208DF82F00FFE77B
:103160000A9850B3FFE70A9840000F99496800EBAE
:103170005100B0FBF1F00C900C98102818D3FFE729
:10318000BDF83200A0B9FFE70C9820F00F00ADF8B1
:1031900036000C9800F00E01BDF8360040EA5100F0
:1031A000ADF83600BDF836000F990968C86003E035
:1031B00001208DF82F00FFE7FFE748E09DF835007C
:1031C0000146009108281DD80099DFE801F00509A3
:1031D0000D1B131B1B1B1700FEF7B2FC0A9017E018
:1031E000FEF7C2FC0A9013E042F20040C0F2F40085
:1031F0000A900DE0FEF7CCFC0A9009E04FF4004085
:103200000A9005E000200A9001208DF82F00FFE7CA
:103210000A98D8B1FFE70A980F99496800EB510066
:10322000B0FBF1F00C900C9810280AD3FFE7BDF822
:10323000320030B9FFE7BDF830000F990968C86067
:1032400003E001208DF82F00FFE7FFE7FFE70F996C
:10325000002088660F99C8669DF82F0010B080BDC9
:1032600080B58AB0DDF830C0089007918DF81B203A
:103270000593FFE708980068C06907990840401A5D
:10328000B0FA80F040099DF81B10884240F09A8007
:10329000FFE70C980130002800F09380FFE7FDF76E
:1032A0000BFD0599401A0C99884203D8FFE70C984A
:1032B000B0BBFFE7FFE7FFE70898006850E8000FA2
:1032C00020F4D0700490FFE704990898026842E85F
:1032D00000100028F0D1FFE7FFE7FFE7FFE70898BD
:1032E000006850E8020F20F001000390FFE7039907
:1032F0000898026842E802100028F0D1FFE7FFE7D3
:1033000008992020C8670899C1F88000FFE708994C
:10331000002081F87800FFE703208DF8270055E0B2
:103320000898006800684007002849D5FFE708981A
:103330000068C06900F400610120B0EBD12F3ED1DC
:10334000FFE7089801684FF400600862FFE7FFE7B5
:103350000898006850E8000F20F4D0700290FFE752
:1033600002990898026842E800100028F0D1FFE7AF
:10337000FFE7FFE7FFE70898006850E8020F20F03A
:1033800001000190FFE701990898026842E80210E5
:103390000028F0D1FFE7FFE708992020C8670899C7
:1033A000C1F880000899C1F88400FFE7089900205F
:1033B00081F87800FFE703208DF8270006E0FFE79B
:1033C000FFE757E700208DF82700FFE79DF827006B
:1033D0000AB080BD0000000080B541F21000C2F2CA
:1033E000000000F04DF880BD80B541F23C00C2F213
:1033F000000000F045F880BD88B0029001910120E6
:103400000790079880F310880298408BADF802006F
:1034100000200690069880F31088BDF8020020B9BD
:10342000FFE700208DF80F0025E002998868098BDE
:10343000405C0199087001200590059880F3108880
:103440000299088B0130088380B20299C9898842A9
:1034500004DBFFE7029900200883FFE70299488B0D
:103460000138488300200490049880F310880120DC
:103470008DF80F00FFE79DF80F0008B070470000BF
:1034800080B586B0059005980068C06904900598DD
:1034900000680068039005980068806802909DF8B5
:1034A00010008006002830D5FFE705980068406AC4
:1034B0008DF807009DF80700059A9168D28A885414
:1034C0000599C88A0130C88280B20599C9898842A5
:1034D00004DBFFE705990020C882FFE70598408BD1
:1034E0000599C989884205DAFFE70599488B0130BB
:1034F0004883FFE70598406A30B1FFE70598416AC5
:103500009DF807008847FFE7FFE79DF810000006D9
:10351000002836D5FFE79DF80C000006002830D5BE
:10352000FFE70598808A68B9FFE705980168086891
:1035300020F08000086005980168086840F04000AD
:1035400008601DE00599012081F828000599486868
:10355000498A405C0599096888620599488A013062
:10356000488280B205998989884204DBFFE7059982
:1035700000204882FFE70599888A01388882FFE7A2
:10358000FFE79DF810004006002838D5FFE79DF8BA
:103590000C004006002832D5FFE70598808A98B9CC
:1035A000FFE705980168086820F04000086005986A
:1035B000006A20B1FFE70598006A8047FFE7059998
:1035C000002081F8280019E005994868498A405C84
:1035D0000599096888620599488A0130488280B255
:1035E00005998989884204DBFFE705990020488214
:1035F000FFE70599888A01388882FFE7FFE7059889
:103600000168086A40F00100086205980168086ACC
:1036100040F00200086205980168086A40F0040062
:10362000086205980168086A40F008000862059879
:103630000168086A40F01000086205980168086A8D
:1036400040F04000086205980168086A40F4807004
:10365000086205980168086A40F4007008620598DD
:103660000168086A40F40030086205980168086A39
:1036700040F48010086205980168086A40F4006010
:10368000086206B080BD000088B003900291ADF8DA
:1036900006200020ADF80400FFE7BDF80400BDF8E7
:1036A000061088425ADAFFE7FFE7012007900798E3
:1036B00080F310880398808AADF8020000200690FD
:1036C000069880F31088BDF8020003998989884222
:1036D00001DAFFE717E0BDF8020003998989884203
:1036E0000FD1FFE70398006800680006002807D4A0
:1036F000FFE703980168086840F080000860FFE772
:10370000FFE7FFE7D1E70298BDF80410405C039A99
:103710005168128A885401200590059880F310881A
:103720000399088A0130088280B203998989884206
:1037300004DBFFE7039900200882FFE70399888AEA
:103740000130888200200490049880F31088FFE7FD
:10375000BDF804000130ADF804009EE7039801684D
:10376000086840F08000086008B070470000000062
:1037700041F21001C2F2000141F20000C4F2010066
:10378000086040F61000C2F20000486040F21000ED
:10379000C2F2000088604FF480628A81CA810020F2
:1037A00008824882C882088348838882C861086288
:1037B000486281F8280041F23C01C2F2000144F65F
:1037C0000003C4F200030B6040F61043C2F2000392
:1037D0004B6040F21043C2F200038B608A81CA81C1
:1037E00008824882C88208834883888242F6F102B0
:1037F000C0F60002CA6142F6F902C0F600020A628F
:1038000042F6E102C0F600024A6281F828007047E1
:10381000FFE7FEE70000000081B08DF803009DF98E
:10382000030000280ED4FFE79DF9031001F01F02EA
:10383000012090404A094EF20011CEF2000141F8F9
:103840002200FFE701B070474EF60C50CEF20000A8
:103850000068C0F30220704782B08DF80700009125
:103860009DF9070000280AD4FFE7009800019DF9A0
:1038700007104EF20042CEF2000288540BE000988E
:1038800000019DF8071001F00F014EF61452CEF220
:1038900000028854FFE702B07047000000000000FB
:1038A00083B00290029800F0070000904EF60C5191
:1038B000CEF200010868019001984FF6FF02104017
:1038C00001900198009A40EA02200022C0F2FA52C8
:1038D000104301900198086003B070470000000099
:1038E00080B5FEF76DFFFCF75BFFFDF7FDF9FFF715
:1038F0009BF800F001F880BD80B5FFF739FFFEF7B7
:103900004BFE80BD0000000080B5A6B0259024913C
:1039100023922293259800902498019000200290F1
:10392000039023990491069022990591079008909D
:1039300009906846FEF740FD48B1FFE744F2CC40ED
:10394000C0F6000040F22631FCF78EFFFFE726B0FC
:1039500080BD00000000000080B584B08DF80E002E
:1039600002919DF80E00FCF723FF0190019820B909
:10397000FFE700208DF80F0006E001980299FFF79D
:103980003BFD8DF80F00FFE79DF80F0004B080BDF0
:1039900080B584B08DF80F000291ADF806209DF837
:1039A0000F00FCF705FF0090009808B9FFE70EE054
:1039B0000098C06920B1FFE70098C0698047FFE721
:1039C00000980299BDF80620FFF75EFEFFE704B0FD
:1039D00080BD00000000000080B582B08DF80700B7
:1039E0008DF806109DF807000DF106010122FFF782
:1039F000CFFF02B080BD000080B582B00190009181
:103A00009DF804100020FFF7E7FF019802B080BD89
:103A100080B5ADF5856D00200090CDF82404FFF74A
:103A20005FFF00988DF8220445F24141ADF8201463
:103A3000CDF81C04CDF81804CDF81404CDF810040A
:103A4000CDF80C04ADF80800ADF80600FFE7002043
:103A50000DF10B01FFF780FF08B3FFE79DF80B00A6
:103A6000BDF80820511CADF808100DF20C41885427
:103A70003220FCF705FF9DF80B000A280ED1FFE766
:103A8000BDF80800032809DBFFE744F2FB40C0F65D
:103A900000000DF20C4100F08FF8FFE78AE0FFE72D
:103AA000BDF8080013280DDCFFE7BDF808200DF273
:103AB0000C4100208854FFE7BDF808000130ADF844
:103AC0000800EDE7BDF8080058B1FFE79DF80C04C9
:103AD00038B1FFE702200DF20C411422FFF758FF26
:103AE000FFE70020ADF8080002200DF10A01FFF702
:103AF00033FF002846D0FFE79DF80A00BDF80620F6
:103B0000511CADF8061083A988546420FCF7B8FE58
:103B1000BDF80600052834DBFFE7BDF8060083A9E1
:103B2000084410F8040C4F282BD1FFE7BDF806001D
:103B300083A9084410F8030C4B2822D1FFE7BDF8F5
:103B4000060083A9084410F8020C0D2819D1FFE7DC
:103B5000BDF8060083A9084410F8010C0A2810D10A
:103B6000FFE7BDF8061044F2E040C0F6000000F0A8
:103B700023F844F2E740C0F6000083A900F01CF8E7
:103B8000FFE716E0FFE7BDF80600B0F5007F0CDAAE
:103B9000FFE7BDF8062083A900208854FFE7BDF8A1
:103BA00006000130ADF80600EDE70020ADF8060094
:103BB000FFE7FFE74BE700000FB4054B10B503A983
:103BC000044A029800F0DAF810BC5DF814FB00001B
:103BD000F93900080000002002E008C8121F08C1DF
:103BE000002AFAD170477047002001E001C1121F7E
:103BF000002AFBD1704700002DE9FF5F82B0002151
:103C0000DDE90430020DDDF840B0034318D044F67E
:103C10001050A2F2FF3242431514119801281FD010
:103C2000A5EB0B00401C5FEA000A4FF000064E4F68
:103C3000DFF83891B046504615D5CAF1000413E0BC
:103C4000119801244AA3012801D16FEA0B010298BF
:103C5000119AC0E90031C0E9024206B0BDE8F09F08
:103C6000CBF10000DFE704460021404A491842EB4F
:103C70000450CDE9001012E0E00707D032463B4681
:103C800040464946FCF7F3FB8046894632463B46B0
:103C900010461946FCF7EBFB06460F466410002C55
:103CA000EAD1DDE90401DDE90023BAF1000F06DA0B
:103CB000FCF7DDFB42464B46FCF7D9FB05E0FCF781
:103CC00048FC42464B46FCF744FC04460E460022A4
:103CD000284BFCF7C5FC03D84FF0FF30014607E046
:103CE0000022254B20463146FCF71AFBFCF7A0FCCE
:103CF000102409E0002C0ADB0A220023FCF798FAC2
:103D0000039B30321A55641E50EA0102F2D1641C42
:103D1000039AC4F111031444119A012A03D0012219
:103D200008430DD10AE0084304D000204FF0110BE6
:103D3000119072E7A3EB0B056D1E0DE05B4504DDF2
:103D40004FF0000205F1010504E003DA4FF0000234
:103D5000A5F10105002AECD002981199C0E90231C1
:103D6000C0E9004579E70000000014400000F03F82
:103D7000300000000000F0430000E03F2DE9FF4F5D
:103D800095B09B468946064600250FE2252877D147
:103D900000242746F84A0121059400E0044316F860
:103DA000013F203B01FA03F01042F7D130782A2876
:103DB00011D06FF02F033078A0F13002092A16D805
:103DC000059A44F0020402EB820203EB4202104423
:103DD000761C0590EFE759F8042B0592002A03DAC8
:103DE000504244F40054059044F00204761C3078AC
:103DF0002E2816D116F8010F44F004042A280DD0FD
:103E00006FF02F023078A0F13003092B09D807EBAF
:103E1000870302EB4303C718761CF3E759F8047BCA
:103E2000761C30786C280FD006DC4C2817D0682818
:103E30000DD06A2814D104E0742810D07A280FD14C
:103E40000DE044F400140AE044F4801401E044F46A
:103E500040147278824202D104F58014761C761CDC
:103E6000307866280BD013DC582877D009DC00287E
:103E700075D04528F6D04628F4D047281AD19DE1C0
:103E800018E0632835D0642879D0652812D195E1EF
:103E9000702873D008DC6728F1D069286FD06E28AD
:103EA0000DD06F2806D1B5E073282CD0752875D0B9
:103EB000782874D05A46179990476D1C75E1C4F361
:103EC0000250022809D003280DD0D9F80010042888
:103ED0000DD00D6009F1040967E1D9F80010EA1767
:103EE000C1E90052F6E7D9F800100D80F2E70D7035
:103EF000F0E719F8041B8DF8001000208DF8010080
:103F0000EA46012003E059F804AB4FF0FF306107A7
:103F10004FF0000102D40DE008F101018846B942DA
:103F20000FDA8045F8DB1AF808100029F4D108E010
:103F300008F1010188468142FADB1AF808100029CD
:103F4000F6D105985B46A0EB080721463846179A3C
:103F500000F094FA284400EB080507E04DE029E161
:103F60000DE01AF8010B5A4617999047B8F101086D
:103F7000F7D25B4621463846179A13E142E00A22FF
:103F80000092C4F302524FF0000A022A08D059F8F6
:103F900004CB032A4FEAEC710AD00DE029E02AE0B5
:103FA00009F1070121F00702F2E802C1914609E098
:103FB0000FFA8CFC4FEAEC71042A03D14FFA8CFC07
:103FC0004FEAEC71002907DA0A460021DCF1000C07
:103FD00061EB02012D2202E0220504D52B228DF88F
:103FE0000420012203E0E20701D02022F7E79046F7
:103FF00059E00A2102E010220DE010214FF0000AE2
:1040000000910BE010224FF0000A44F0040408274E
:10401000009203E008224FF0000A0092C4F302521B
:10402000022A05D059F804CB0021032A08D009E060
:1040300009F1070121F00702F2E802C1914605E00B
:104040001FFA8CFC042A01D10CF0FF0C4FF0000881
:10405000220728D5702806D0009B83F0100353EA6E
:104060000A0305D00EE040228DF80420012208E06A
:104070005CEA010206D030228DF804208DF805009C
:1040800002229046009B83F0080353EA0A030AD1F8
:104090005CEA010201D1620705D530228DF80420C7
:1040A0004FF001087F1E582804D034A003900EA8BA
:1040B00002900DE036A0F9E753466046009AFCF7FF
:1040C000B7F884460398825C0298401E0290027002
:1040D0005CEA0100F0D1029806A9081A00F1200A52
:1040E000600702D524F4803400E00127574502DD43
:1040F000A7EB0A0000E0002000EB0A010090059801
:104100004144401A0590E00306D45B462146179AC5
:10411000059800F0B3F90544002706E001A85A46C7
:10412000C05D179990476D1C7F1C4745F6DBE00387
:104130000CD55B462146179A059800F09FF9054477
:1041400004E030205A46179990476D1C0099481E8C
:1041500000900029F5DC08E0029802995A460078A0
:10416000491C0291179990476D1CBAF10001AAF100
:10417000010AF1DC65E10000092801003031323329
:104180003435363738396162636465660000000093
:10419000303132333435363738394142434445467D
:1041A0000000000000F058F90544761C3078002823
:1041B0007FF4ECAD19B02846BDE8F08F620700D45B
:1041C000062709F1070222F0070CFCE80223E1466A
:1041D00003F000485FEA080C02D00FF2702C0DE0EB
:1041E0005FEA045C02D50FF2682C07E05FEAC47C4A
:1041F00002D00FF2602C01E0AFF2700C4FF0FF38EC
:1042000023F00043CDF850C065280CD006DC4528CB
:1042100009D046281DD047283DD13DE0662818D05A
:1042200067287ED138E00021112F01DB112000E04A
:10423000781CCDE9000106A90EA8FFF7DDFCDDE939
:104240000F010E9A03910021009207F1010A0491D7
:104250004DE04FF000400097CDE9011006A90EA8EF
:10426000FFF7CAFCDDE90F0203920E9B11990022B1
:10427000DDF80CA00093049211B9791C00EB010A3F
:10428000B7EB0A0004D4C0F1FF3007F1010A049033
:10429000AAEB0700019044E0012F00DA012700217A
:1042A000112F01DD112000E03846CDE9000106A9FB
:1042B0000EA8FFF7A1FCDDE90F010E9A0391002182
:1042C00004910092BA4621070CD40399514500DAB3
:1042D0008A46BAF1010F05DD009AAAF10101515C8D
:1042E000302908D0B84202DA10F1040F06DA0121B1
:1042F000CDE9011015E0AAF10101E9E7002805DC8C
:10430000049901440491AAEB000102E0411C5145CB
:1043100000DD8A460499401A401C01904FF000408D
:104320000290200704D40198504501DBCDF80480A9
:1043300000208DF84F0002980DF14F07B0F1004FAB
:1043400025D02B200E9002984FF0020800280CDA9E
:10435000404202902D200E9007E00A210298FBF7C0
:10436000AAFF3031029007F8011DB8F10001A8F151
:104370000108F2DC02980028EFD1791E0E9808702F
:10438000307800F0200040F0450007F8020D12A838
:10439000C01B00F107081498007800B1012000EB61
:1043A0000A01019801EBE07105984144401A401E52
:1043B0000590E00306D45B462146179A059800F065
:1043C0005DF805441498007818B15A46179990473B
:1043D0006D1CE00324D55B462146179A059800F032
:1043E0004DF805441CE00498002807DBDDE90301D3
:1043F000884203DD0098405C179901E0179930204E
:104400005A469047049805F10105401C0490019814
:10441000401E019004D12E205A46179990476D1CDA
:10442000BAF10001AAF1010ADDDC05E017F8010B81
:104430005A46179990476D1CB8F10001A8F1010880
:10444000F4DC5B462146179A0598ABE62D00000088
:104450002B000000200000002DE9F041044600255B
:104460001E461746880404D405E039462020B0478C
:104470006D1C641EF9D52846BDE8F0812DE9F04198
:10448000044600251E469046C80301D5302700E0AB
:104490002027880404D505E041463846B0476D1C06
:1044A000641EF9D52846BDE8F08100000000000038
:1044B00000000102030406070809000000000102D1
:1044C00003044253502F6273702E63004253502FE7
:1044D0006273705F756172745F6669666F2E6300E8
:1044E0006A3D25640D0A0068756172743320526557
:1044F00063656976653A25730D0A006875617274A3
:104500003120726563656976653A25730D0A00008E
:10451000304500080000002010000000D83B0008D3
:10452000404500081000002060180000E83B00082B
:10453000000000000024F400010000001000000052
:04000005080001F9F5
:00000001FF
